{
  "contractName": "OracleUsability",
  "abi": [
    {
      "inputs": [
        {
          "internalType": "string",
          "name": "raw",
          "type": "string"
        },
        {
          "internalType": "enum BookDexAction",
          "name": "action",
          "type": "uint8"
        }
      ],
      "name": "__callback",
      "outputs": [],
      "stateMutability": "nonpayable",
      "type": "function"
    },
    {
      "inputs": [],
      "name": "__fetch_waiting_queries",
      "outputs": [
        {
          "internalType": "enum BookDexAction[]",
          "name": "",
          "type": "uint8[]"
        }
      ],
      "stateMutability": "view",
      "type": "function"
    }
  ],
  "bytecode": "0x608060405234801561001057600080fd5b506101ec806100206000396000f3fe608060405234801561001057600080fd5b50600436106100365760003560e01c806308f57fd51461003b5780636908c3731461009a575b600080fd5b610043610120565b6040518080602001828103825283818151815260200191508051906020019060200280838360005b8381101561008657808201518184015260208101905061006b565b505050509050019250505060405180910390f35b61011e600480360360408110156100b057600080fd5b81019080803590602001906401000000008111156100cd57600080fd5b8201836020820111156100df57600080fd5b8035906020019184600183028401116401000000008311171561010157600080fd5b9091929391929390803560ff1690602001909291905050506101a6565b005b6060600080548060200260200160405190810160405280929190818152602001828054801561019c57602002820191906000526020600020906000905b82829054906101000a900460ff16600081111561017657fe5b8152602001906001019060208260000104928301926001038202915080841161015d5790505b5050505050905090565b6101b18383836101a6565b50505056fea2646970667358221220cefb04ae3927636bf6a766f7aa9d0d0a5d49d50a1260affda92fb8c9798588f364736f6c63430007000033",
  "immutableReferences": {},
  "source": "// SPDX-License-Identifier: MIT\r\n\r\npragma solidity ^0.7.0;\r\n\r\nenum BookDexAction { FetchMarketERC20Prices }\r\n\r\ncontract OracleUsability {\r\n\r\n    address constant oracle_address = 0x862e71D87856fB83f393f342F853e40b3132F3ea;\r\n    BookDexAction[] internal waiting_queries;\r\n\r\n    function __callback(string calldata raw, BookDexAction action) virtual public {\r\n        __callback(raw, action);\r\n    }\r\n\r\n    function __add_waiting_query(BookDexAction query) internal {\r\n        waiting_queries.push(query);\r\n    }\r\n\r\n    function __ack_ended_query(uint index) internal {\r\n        require(index < waiting_queries.length);\r\n        delete(waiting_queries[index]);\r\n    }\r\n\r\n    function __fetch_waiting_queries() virtual public view returns (BookDexAction[] memory) {\r\n        return waiting_queries;\r\n    }\r\n}",
  "sourcePath": "/mnt/f/eth/contracts/contracts/libs/oracleLinker.sol",
  "compiler": {
    "name": "solc",
    "version": "0.7.0+commit.9e61f92b.Emscripten.clang"
  },
  "schemaVersion": "3.2.5",
  "updatedAt": "2020-09-30T21:20:25.236Z",
  "devdoc": {
    "kind": "dev",
    "methods": {},
    "version": 1
  },
  "userdoc": {
    "kind": "user",
    "methods": {},
    "version": 1
  }
}