{
  "contractName": "BookDexToken",
  "abi": [
    {
      "inputs": [
        {
          "internalType": "string",
          "name": "name",
          "type": "string"
        },
        {
          "internalType": "string",
          "name": "symbol",
          "type": "string"
        },
        {
          "internalType": "uint256",
          "name": "startSupply",
          "type": "uint256"
        },
        {
          "internalType": "address",
          "name": "owner",
          "type": "address"
        }
      ],
      "stateMutability": "nonpayable",
      "type": "constructor"
    },
    {
      "anonymous": false,
      "inputs": [
        {
          "indexed": true,
          "internalType": "address",
          "name": "owner",
          "type": "address"
        },
        {
          "indexed": true,
          "internalType": "address",
          "name": "spender",
          "type": "address"
        },
        {
          "indexed": false,
          "internalType": "uint256",
          "name": "value",
          "type": "uint256"
        }
      ],
      "name": "Approval",
      "type": "event"
    },
    {
      "anonymous": false,
      "inputs": [
        {
          "indexed": true,
          "internalType": "address",
          "name": "from",
          "type": "address"
        },
        {
          "indexed": true,
          "internalType": "address",
          "name": "to",
          "type": "address"
        },
        {
          "indexed": false,
          "internalType": "uint256",
          "name": "value",
          "type": "uint256"
        }
      ],
      "name": "Transfer",
      "type": "event"
    },
    {
      "inputs": [],
      "name": "__fetch_waiting_queries",
      "outputs": [
        {
          "internalType": "enum BookDexAction[]",
          "name": "",
          "type": "uint8[]"
        }
      ],
      "stateMutability": "view",
      "type": "function",
      "constant": true
    },
    {
      "inputs": [
        {
          "internalType": "string",
          "name": "",
          "type": "string"
        }
      ],
      "name": "prices",
      "outputs": [
        {
          "internalType": "string",
          "name": "symbol",
          "type": "string"
        },
        {
          "internalType": "uint256",
          "name": "price",
          "type": "uint256"
        },
        {
          "internalType": "string",
          "name": "test",
          "type": "string"
        }
      ],
      "stateMutability": "view",
      "type": "function",
      "constant": true
    },
    {
      "inputs": [
        {
          "internalType": "address",
          "name": "addr",
          "type": "address"
        }
      ],
      "name": "get_token_price",
      "outputs": [
        {
          "internalType": "uint256",
          "name": "",
          "type": "uint256"
        }
      ],
      "stateMutability": "view",
      "type": "function",
      "constant": true
    },
    {
      "inputs": [
        {
          "internalType": "address",
          "name": "addr",
          "type": "address"
        }
      ],
      "name": "get_token_test",
      "outputs": [
        {
          "internalType": "string",
          "name": "",
          "type": "string"
        }
      ],
      "stateMutability": "view",
      "type": "function",
      "constant": true
    },
    {
      "inputs": [
        {
          "internalType": "string",
          "name": "symbol",
          "type": "string"
        }
      ],
      "name": "get_price_by_symbol",
      "outputs": [
        {
          "internalType": "uint256",
          "name": "",
          "type": "uint256"
        }
      ],
      "stateMutability": "view",
      "type": "function",
      "constant": true
    },
    {
      "inputs": [
        {
          "internalType": "string",
          "name": "index",
          "type": "string"
        }
      ],
      "name": "get_test_by_index",
      "outputs": [
        {
          "internalType": "string",
          "name": "",
          "type": "string"
        }
      ],
      "stateMutability": "view",
      "type": "function",
      "constant": true
    },
    {
      "inputs": [
        {
          "internalType": "string",
          "name": "raw",
          "type": "string"
        },
        {
          "internalType": "enum BookDexAction",
          "name": "action",
          "type": "uint8"
        }
      ],
      "name": "__callback",
      "outputs": [],
      "stateMutability": "nonpayable",
      "type": "function"
    },
    {
      "inputs": [
        {
          "internalType": "address payable",
          "name": "receiver",
          "type": "address"
        }
      ],
      "name": "transferETHToContract",
      "outputs": [],
      "stateMutability": "payable",
      "type": "function",
      "payable": true
    },
    {
      "inputs": [],
      "name": "name",
      "outputs": [
        {
          "internalType": "string",
          "name": "",
          "type": "string"
        }
      ],
      "stateMutability": "view",
      "type": "function",
      "constant": true
    },
    {
      "inputs": [],
      "name": "symbol",
      "outputs": [
        {
          "internalType": "string",
          "name": "",
          "type": "string"
        }
      ],
      "stateMutability": "view",
      "type": "function",
      "constant": true
    },
    {
      "inputs": [],
      "name": "decimals",
      "outputs": [
        {
          "internalType": "uint8",
          "name": "",
          "type": "uint8"
        }
      ],
      "stateMutability": "view",
      "type": "function",
      "constant": true
    },
    {
      "inputs": [],
      "name": "totalSupply",
      "outputs": [
        {
          "internalType": "uint256",
          "name": "",
          "type": "uint256"
        }
      ],
      "stateMutability": "view",
      "type": "function",
      "constant": true
    },
    {
      "inputs": [
        {
          "internalType": "address",
          "name": "account",
          "type": "address"
        }
      ],
      "name": "balanceOf",
      "outputs": [
        {
          "internalType": "uint256",
          "name": "",
          "type": "uint256"
        }
      ],
      "stateMutability": "view",
      "type": "function",
      "constant": true
    },
    {
      "inputs": [
        {
          "internalType": "address",
          "name": "recipient",
          "type": "address"
        },
        {
          "internalType": "uint256",
          "name": "amount",
          "type": "uint256"
        }
      ],
      "name": "transfer",
      "outputs": [
        {
          "internalType": "bool",
          "name": "",
          "type": "bool"
        }
      ],
      "stateMutability": "nonpayable",
      "type": "function"
    },
    {
      "inputs": [
        {
          "internalType": "address",
          "name": "owner",
          "type": "address"
        },
        {
          "internalType": "address",
          "name": "spender",
          "type": "address"
        }
      ],
      "name": "allowance",
      "outputs": [
        {
          "internalType": "uint256",
          "name": "",
          "type": "uint256"
        }
      ],
      "stateMutability": "view",
      "type": "function",
      "constant": true
    },
    {
      "inputs": [
        {
          "internalType": "address",
          "name": "spender",
          "type": "address"
        },
        {
          "internalType": "uint256",
          "name": "amount",
          "type": "uint256"
        }
      ],
      "name": "approve",
      "outputs": [
        {
          "internalType": "bool",
          "name": "",
          "type": "bool"
        }
      ],
      "stateMutability": "nonpayable",
      "type": "function"
    },
    {
      "inputs": [
        {
          "internalType": "address",
          "name": "sender",
          "type": "address"
        },
        {
          "internalType": "address",
          "name": "recipient",
          "type": "address"
        },
        {
          "internalType": "uint256",
          "name": "amount",
          "type": "uint256"
        }
      ],
      "name": "transferFrom",
      "outputs": [
        {
          "internalType": "bool",
          "name": "",
          "type": "bool"
        }
      ],
      "stateMutability": "nonpayable",
      "type": "function"
    },
    {
      "inputs": [
        {
          "internalType": "address",
          "name": "spender",
          "type": "address"
        },
        {
          "internalType": "uint256",
          "name": "addedValue",
          "type": "uint256"
        }
      ],
      "name": "increaseAllowance",
      "outputs": [
        {
          "internalType": "bool",
          "name": "",
          "type": "bool"
        }
      ],
      "stateMutability": "nonpayable",
      "type": "function"
    },
    {
      "inputs": [
        {
          "internalType": "address",
          "name": "spender",
          "type": "address"
        },
        {
          "internalType": "uint256",
          "name": "subtractedValue",
          "type": "uint256"
        }
      ],
      "name": "decreaseAllowance",
      "outputs": [
        {
          "internalType": "bool",
          "name": "",
          "type": "bool"
        }
      ],
      "stateMutability": "nonpayable",
      "type": "function"
    }
  ],
  "bytecode": "0x60806040523480156200001157600080fd5b5060405162002d6138038062002d61833981810160405260808110156200003757600080fd5b81019080805160405193929190846401000000008211156200005857600080fd5b838201915060208201858111156200006f57600080fd5b82518660018202830111640100000000821117156200008d57600080fd5b8083526020830192505050908051906020019080838360005b83811015620000c3578082015181840152602081019050620000a6565b50505050905090810190601f168015620000f15780820380516001836020036101000a031916815260200191505b50604052602001805160405193929190846401000000008211156200011557600080fd5b838201915060208201858111156200012c57600080fd5b82518660018202830111640100000000821117156200014a57600080fd5b8083526020830192505050908051906020019080838360005b838110156200018057808201518184015260208101905062000163565b50505050905090810190601f168015620001ae5780820380516001836020036101000a031916815260200191505b5060405260200180519060200190929190805190602001909291905050508360049080519060200190620001e492919062000535565b508260059080519060200190620001fd92919062000535565b506012600660006101000a81548160ff021916908360ff16021790555062000243816200022f6200025f60201b60201c565b60ff16600a0a84026200027660201b60201c565b6200025560006200045660201b60201c565b50505050620005db565b6000600660009054906101000a900460ff16905090565b600073ffffffffffffffffffffffffffffffffffffffff168273ffffffffffffffffffffffffffffffffffffffff1614156200031a576040517f08c379a000000000000000000000000000000000000000000000000000000000815260040180806020018281038252601f8152602001807f45524332303a206d696e7420746f20746865207a65726f20616464726573730081525060200191505060405180910390fd5b6200032e60008383620004a760201b60201c565b6200034a81600354620004ac60201b6200190c1790919060201c565b600381905550620003a981600160008573ffffffffffffffffffffffffffffffffffffffff1673ffffffffffffffffffffffffffffffffffffffff16815260200190815260200160002054620004ac60201b6200190c1790919060201c565b600160008473ffffffffffffffffffffffffffffffffffffffff1673ffffffffffffffffffffffffffffffffffffffff168152602001908152602001600020819055508173ffffffffffffffffffffffffffffffffffffffff16600073ffffffffffffffffffffffffffffffffffffffff167fddf252ad1be2c89b69c2b068fc378daa952ba7f163c4a11628f55a4df523b3ef836040518082815260200191505060405180910390a35050565b60008190806001815401808255809150506001900390600052602060002090602091828204019190069091909190916101000a81548160ff021916908360008111156200049f57fe5b021790555050565b505050565b6000808284019050838110156200052b576040517f08c379a000000000000000000000000000000000000000000000000000000000815260040180806020018281038252601b8152602001807f536166654d6174683a206164646974696f6e206f766572666c6f77000000000081525060200191505060405180910390fd5b8091505092915050565b828054600181600116156101000203166002900490600052602060002090601f016020900481019282601f106200057857805160ff1916838001178555620005a9565b82800160010185558215620005a9579182015b82811115620005a85782518255916020019190600101906200058b565b5b509050620005b89190620005bc565b5090565b5b80821115620005d7576000816000905550600101620005bd565b5090565b61277680620005eb6000396000f3fe6080604052600436106101145760003560e01c806339509351116100a0578063a9059cbb11610064578063a9059cbb146107f9578063c153ad601461086a578063c3825f4b146108cf578063c69977d714610a83578063dd62ed3e14610b4d57610114565b8063395093511461058f5780636908c3731461060057806370a082311461069357806395d89b41146106f8578063a457c2d71461078857610114565b806318160ddd116100e757806318160ddd146102ca5780631b758e53146102f557806323b872dd1461038f57806323f05ba814610420578063313ce5671461056157610114565b806306fdde031461011957806308f57fd5146101a9578063095ea7b3146102155780630d1b7cb914610286575b600080fd5b34801561012557600080fd5b5061012e610bd2565b6040518080602001828103825283818151815260200191508051906020019080838360005b8381101561016e578082015181840152602081019050610153565b50505050905090810190601f16801561019b5780820380516001836020036101000a031916815260200191505b509250505060405180910390f35b3480156101b557600080fd5b506101be610c74565b6040518080602001828103825283818151815260200191508051906020019060200280838360005b838110156102015780820151818401526020810190506101e6565b505050509050019250505060405180910390f35b34801561022157600080fd5b5061026e6004803603604081101561023857600080fd5b81019080803573ffffffffffffffffffffffffffffffffffffffff16906020019092919080359060200190929190505050610cfa565b60405180821515815260200191505060405180910390f35b6102c86004803603602081101561029c57600080fd5b81019080803573ffffffffffffffffffffffffffffffffffffffff169060200190929190505050610d11565b005b3480156102d657600080fd5b506102df610d68565b6040518082815260200191505060405180910390f35b34801561030157600080fd5b506103796004803603602081101561031857600080fd5b810190808035906020019064010000000081111561033557600080fd5b82018360208201111561034757600080fd5b8035906020019184600183028401116401000000008311171561036957600080fd5b9091929391929390505050610d72565b6040518082815260200191505060405180910390f35b34801561039b57600080fd5b50610408600480360360608110156103b257600080fd5b81019080803573ffffffffffffffffffffffffffffffffffffffff169060200190929190803573ffffffffffffffffffffffffffffffffffffffff16906020019092919080359060200190929190505050610da7565b60405180821515815260200191505060405180910390f35b34801561042c57600080fd5b506104e66004803603602081101561044357600080fd5b810190808035906020019064010000000081111561046057600080fd5b82018360208201111561047257600080fd5b8035906020019184600183028401116401000000008311171561049457600080fd5b91908080601f016020809104026020016040519081016040528093929190818152602001838380828437600081840152601f19601f820116905080830192505050505050509192919290505050610e72565b6040518080602001828103825283818151815260200191508051906020019080838360005b8381101561052657808201518184015260208101905061050b565b50505050905090810190601f1680156105535780820380516001836020036101000a031916815260200191505b509250505060405180910390f35b34801561056d57600080fd5b50610576610f80565b604051808260ff16815260200191505060405180910390f35b34801561059b57600080fd5b506105e8600480360360408110156105b257600080fd5b81019080803573ffffffffffffffffffffffffffffffffffffffff16906020019092919080359060200190929190505050610f97565b60405180821515815260200191505060405180910390f35b34801561060c57600080fd5b506106916004803603604081101561062357600080fd5b810190808035906020019064010000000081111561064057600080fd5b82018360208201111561065257600080fd5b8035906020019184600183028401116401000000008311171561067457600080fd5b9091929391929390803560ff16906020019092919050505061103c565b005b34801561069f57600080fd5b506106e2600480360360208110156106b657600080fd5b81019080803573ffffffffffffffffffffffffffffffffffffffff169060200190929190505050611149565b6040518082815260200191505060405180910390f35b34801561070457600080fd5b5061070d611192565b6040518080602001828103825283818151815260200191508051906020019080838360005b8381101561074d578082015181840152602081019050610732565b50505050905090810190601f16801561077a5780820380516001836020036101000a031916815260200191505b509250505060405180910390f35b34801561079457600080fd5b506107e1600480360360408110156107ab57600080fd5b81019080803573ffffffffffffffffffffffffffffffffffffffff16906020019092919080359060200190929190505050611234565b60405180821515815260200191505060405180910390f35b34801561080557600080fd5b506108526004803603604081101561081c57600080fd5b81019080803573ffffffffffffffffffffffffffffffffffffffff169060200190929190803590602001909291905050506112f3565b60405180821515815260200191505060405180910390f35b34801561087657600080fd5b506108b96004803603602081101561088d57600080fd5b81019080803573ffffffffffffffffffffffffffffffffffffffff16906020019092919050505061130a565b6040518082815260200191505060405180910390f35b3480156108db57600080fd5b50610995600480360360208110156108f257600080fd5b810190808035906020019064010000000081111561090f57600080fd5b82018360208201111561092157600080fd5b8035906020019184600183028401116401000000008311171561094357600080fd5b91908080601f016020809104026020016040519081016040528093929190818152602001838380828437600081840152601f19601f8201169050808301925050505050505091929192905050506114c4565b604051808060200184815260200180602001838103835286818151815260200191508051906020019080838360005b838110156109df5780820151818401526020810190506109c4565b50505050905090810190601f168015610a0c5780820380516001836020036101000a031916815260200191505b50838103825284818151815260200191508051906020019080838360005b83811015610a45578082015181840152602081019050610a2a565b50505050905090810190601f168015610a725780820380516001836020036101000a031916815260200191505b509550505050505060405180910390f35b348015610a8f57600080fd5b50610ad260048036036020811015610aa657600080fd5b81019080803573ffffffffffffffffffffffffffffffffffffffff169060200190929190505050611634565b6040518080602001828103825283818151815260200191508051906020019080838360005b83811015610b12578082015181840152602081019050610af7565b50505050905090810190601f168015610b3f5780820380516001836020036101000a031916815260200191505b509250505060405180910390f35b348015610b5957600080fd5b50610bbc60048036036040811015610b7057600080fd5b81019080803573ffffffffffffffffffffffffffffffffffffffff169060200190929190803573ffffffffffffffffffffffffffffffffffffffff169060200190929190505050611885565b6040518082815260200191505060405180910390f35b606060048054600181600116156101000203166002900480601f016020809104026020016040519081016040528092919081815260200182805460018160011615610100020316600290048015610c6a5780601f10610c3f57610100808354040283529160200191610c6a565b820191906000526020600020905b815481529060010190602001808311610c4d57829003601f168201915b5050505050905090565b60606000805480602002602001604051908101604052809291908181526020018280548015610cf057602002820191906000526020600020906000905b82829054906101000a900460ff166000811115610cca57fe5b81526020019060010190602082600001049283019260010382029150808411610cb15790505b5050505050905090565b6000610d07338484611994565b6001905092915050565b60003411610d1e57600080fd5b8073ffffffffffffffffffffffffffffffffffffffff166108fc349081150290604051600060405180830381858888f19350505050158015610d64573d6000803e3d6000fd5b5050565b6000600354905090565b600060078383604051808383808284378083019250505092505050908152602001604051809103902060010154905092915050565b6000610db4848484611b8b565b610e678433610e62856040518060600160405280602881526020016126ab60289139600260008b73ffffffffffffffffffffffffffffffffffffffff1673ffffffffffffffffffffffffffffffffffffffff16815260200190815260200160002060003373ffffffffffffffffffffffffffffffffffffffff1673ffffffffffffffffffffffffffffffffffffffff16815260200190815260200160002054611e509092919063ffffffff16565b611994565b600190509392505050565b60606007826040518082805190602001908083835b60208310610eaa5780518252602082019150602081019050602083039250610e87565b6001836020036101000a03801982511681845116808217855250505050505090500191505090815260200160405180910390206002018054600181600116156101000203166002900480601f016020809104026020016040519081016040528092919081815260200182805460018160011615610100020316600290048015610f745780601f10610f4957610100808354040283529160200191610f74565b820191906000526020600020905b815481529060010190602001808311610f5757829003601f168201915b50505050509050919050565b6000600660009054906101000a900460ff16905090565b6000611032338461102d85600260003373ffffffffffffffffffffffffffffffffffffffff1673ffffffffffffffffffffffffffffffffffffffff16815260200190815260200160002060008973ffffffffffffffffffffffffffffffffffffffff1673ffffffffffffffffffffffffffffffffffffffff1681526020019081526020016000205461190c90919063ffffffff16565b611994565b6001905092915050565b73862e71d87856fb83f393f342f853e40b3132f3ea73ffffffffffffffffffffffffffffffffffffffff163373ffffffffffffffffffffffffffffffffffffffff161461108857600080fd5b60005b600080549050811015611143578160008111156110a457fe5b600082815481106110b157fe5b90600052602060002090602091828204019190069054906101000a900460ff1660008111156110dc57fe5b14156111365761113184848080601f016020809104026020016040519081016040528093929190818152602001838380828437600081840152601f19601f820116905080830192505050505050508383611f10565b611143565b808060010191505061108b565b50505050565b6000600160008373ffffffffffffffffffffffffffffffffffffffff1673ffffffffffffffffffffffffffffffffffffffff168152602001908152602001600020549050919050565b606060058054600181600116156101000203166002900480601f01602080910402602001604051908101604052809291908181526020018280546001816001161561010002031660029004801561122a5780601f106111ff5761010080835404028352916020019161122a565b820191906000526020600020905b81548152906001019060200180831161120d57829003601f168201915b5050505050905090565b60006112e933846112e48560405180606001604052806025815260200161271c60259139600260003373ffffffffffffffffffffffffffffffffffffffff1673ffffffffffffffffffffffffffffffffffffffff16815260200190815260200160002060008a73ffffffffffffffffffffffffffffffffffffffff1673ffffffffffffffffffffffffffffffffffffffff16815260200190815260200160002054611e509092919063ffffffff16565b611994565b6001905092915050565b6000611300338484611b8b565b6001905092915050565b600060608273ffffffffffffffffffffffffffffffffffffffff166395d89b416040518163ffffffff1660e01b815260040160006040518083038186803b15801561135457600080fd5b505afa158015611368573d6000803e3d6000fd5b505050506040513d6000823e3d601f19601f82011682018060405250602081101561139257600080fd5b81019080805160405193929190846401000000008211156113b257600080fd5b838201915060208201858111156113c857600080fd5b82518660018202830111640100000000821117156113e557600080fd5b8083526020830192505050908051906020019080838360005b838110156114195780820151818401526020810190506113fe565b50505050905090810190601f1680156114465780820380516001836020036101000a031916815260200191505b5060405250505090506007816040518082805190602001908083835b602083106114855780518252602082019150602081019050602083039250611462565b6001836020036101000a038019825116818451168082178552505050505050905001915050908152602001604051809103902060010154915050919050565b600781805160208101820180518482526020830160208501208183528095505050505050600091509050806000018054600181600116156101000203166002900480601f0160208091040260200160405190810160405280929190818152602001828054600181600116156101000203166002900480156115865780601f1061155b57610100808354040283529160200191611586565b820191906000526020600020905b81548152906001019060200180831161156957829003601f168201915b505050505090806001015490806002018054600181600116156101000203166002900480601f01602080910402602001604051908101604052809291908181526020018280546001816001161561010002031660029004801561162a5780601f106115ff5761010080835404028352916020019161162a565b820191906000526020600020905b81548152906001019060200180831161160d57829003601f168201915b5050505050905083565b6060808273ffffffffffffffffffffffffffffffffffffffff166395d89b416040518163ffffffff1660e01b815260040160006040518083038186803b15801561167d57600080fd5b505afa158015611691573d6000803e3d6000fd5b505050506040513d6000823e3d601f19601f8201168201806040525060208110156116bb57600080fd5b81019080805160405193929190846401000000008211156116db57600080fd5b838201915060208201858111156116f157600080fd5b825186600182028301116401000000008211171561170e57600080fd5b8083526020830192505050908051906020019080838360005b83811015611742578082015181840152602081019050611727565b50505050905090810190601f16801561176f5780820380516001836020036101000a031916815260200191505b5060405250505090506007816040518082805190602001908083835b602083106117ae578051825260208201915060208101905060208303925061178b565b6001836020036101000a03801982511681845116808217855250505050505090500191505090815260200160405180910390206002018054600181600116156101000203166002900480601f0160208091040260200160405190810160405280929190818152602001828054600181600116156101000203166002900480156118785780601f1061184d57610100808354040283529160200191611878565b820191906000526020600020905b81548152906001019060200180831161185b57829003601f168201915b5050505050915050919050565b6000600260008473ffffffffffffffffffffffffffffffffffffffff1673ffffffffffffffffffffffffffffffffffffffff16815260200190815260200160002060008373ffffffffffffffffffffffffffffffffffffffff1673ffffffffffffffffffffffffffffffffffffffff16815260200190815260200160002054905092915050565b60008082840190508381101561198a576040517f08c379a000000000000000000000000000000000000000000000000000000000815260040180806020018281038252601b8152602001807f536166654d6174683a206164646974696f6e206f766572666c6f77000000000081525060200191505060405180910390fd5b8091505092915050565b600073ffffffffffffffffffffffffffffffffffffffff168373ffffffffffffffffffffffffffffffffffffffff161415611a1a576040517f08c379a00000000000000000000000000000000000000000000000000000000081526004018080602001828103825260248152602001806126f86024913960400191505060405180910390fd5b600073ffffffffffffffffffffffffffffffffffffffff168273ffffffffffffffffffffffffffffffffffffffff161415611aa0576040517f08c379a00000000000000000000000000000000000000000000000000000000081526004018080602001828103825260228152602001806126636022913960400191505060405180910390fd5b80600260008573ffffffffffffffffffffffffffffffffffffffff1673ffffffffffffffffffffffffffffffffffffffff16815260200190815260200160002060008473ffffffffffffffffffffffffffffffffffffffff1673ffffffffffffffffffffffffffffffffffffffff168152602001908152602001600020819055508173ffffffffffffffffffffffffffffffffffffffff168373ffffffffffffffffffffffffffffffffffffffff167f8c5be1e5ebec7d5bd14f71427d1e84f3dd0314c0f7b2291e5b200ac8c7c3b925836040518082815260200191505060405180910390a3505050565b600073ffffffffffffffffffffffffffffffffffffffff168373ffffffffffffffffffffffffffffffffffffffff161415611c11576040517f08c379a00000000000000000000000000000000000000000000000000000000081526004018080602001828103825260258152602001806126d36025913960400191505060405180910390fd5b600073ffffffffffffffffffffffffffffffffffffffff168273ffffffffffffffffffffffffffffffffffffffff161415611c97576040517f08c379a00000000000000000000000000000000000000000000000000000000081526004018080602001828103825260238152602001806126406023913960400191505060405180910390fd5b611ca28383836120aa565b611d0e8160405180606001604052806026815260200161268560269139600160008773ffffffffffffffffffffffffffffffffffffffff1673ffffffffffffffffffffffffffffffffffffffff16815260200190815260200160002054611e509092919063ffffffff16565b600160008573ffffffffffffffffffffffffffffffffffffffff1673ffffffffffffffffffffffffffffffffffffffff16815260200190815260200160002081905550611da381600160008573ffffffffffffffffffffffffffffffffffffffff1673ffffffffffffffffffffffffffffffffffffffff1681526020019081526020016000205461190c90919063ffffffff16565b600160008473ffffffffffffffffffffffffffffffffffffffff1673ffffffffffffffffffffffffffffffffffffffff168152602001908152602001600020819055508173ffffffffffffffffffffffffffffffffffffffff168373ffffffffffffffffffffffffffffffffffffffff167fddf252ad1be2c89b69c2b068fc378daa952ba7f163c4a11628f55a4df523b3ef836040518082815260200191505060405180910390a3505050565b6000838311158290611efd576040517f08c379a00000000000000000000000000000000000000000000000000000000081526004018080602001828103825283818151815260200191508051906020019080838360005b83811015611ec2578082015181840152602081019050611ea7565b50505050905090810190601f168015611eef5780820380516001836020036101000a031916815260200191505b509250505060405180910390fd5b5060008385039050809150509392505050565b600080811115611f1c57fe5b826000811115611f2857fe5b141561209c576060611f6f846040518060400160405280600181526020017f3b000000000000000000000000000000000000000000000000000000000000008152506120af565b905060005b815181101561208f576060611fd1838381518110611f8e57fe5b60200260200101516040518060400160405280600181526020017f3a000000000000000000000000000000000000000000000000000000000000008152506120af565b905060028151141561208157611ffc81600181518110611fed57fe5b60200260200101516008612191565b60078260008151811061200b57fe5b60200260200101516040518082805190602001908083835b602083106120465780518252602082019150602081019050602083039250612023565b6001836020036101000a0380198251168184511680821785525050505050509050019150509081526020016040518091039020600101819055505b508080600101915050611f74565b5061209a600061229a565b505b6120a5816122ea565b505050565b505050565b60606120b9612625565b6120c28461232d565b90506120cc612625565b6120d58461232d565b905060606120ec828461235b90919063ffffffff16565b67ffffffffffffffff8111801561210257600080fd5b5060405190808252806020026020018201604052801561213657816020015b60608152602001906001900390816121215790505b50905060005b81518110156121845761216061215b84866123d090919063ffffffff16565b6123ea565b82828151811061216c57fe5b6020026020010181905250808060010191505061213c565b5080935050505092915050565b6000606083905060008060005b835181101561227b5760308482815181106121b557fe5b602001015160f81c60f81b60f81c60ff16101580156121f1575060398482815181106121dd57fe5b602001015160f81c60f81b60f81c60ff1611155b1561224357811561221457600086141561220a5761227b565b8580600190039650505b600a83029250603084828151811061222857fe5b602001015160f81c60f81b60f81c60ff16038301925061226e565b602e84828151811061225157fe5b602001015160f81c60f81b60f81c60ff16141561226d57600191505b5b808060010191505061219e565b50600085111561228e5784600a0a820291505b81935050505092915050565b60008190806001815401808255809150506001900390600052602060002090602091828204019190069091909190916101000a81548160ff021916908360008111156122e257fe5b021790555050565b60008054905081106122fb57600080fd5b6000818154811061230857fe5b90600052602060002090602091828204019190066101000a81549060ff021916905550565b612335612625565b600060208301905060405180604001604052808451815260200182815250915050919050565b600080826000015161237f8560000151866020015186600001518760200151612463565b0190505b836000015184602001510181116123c957818060010192505082600001516123c1856020015183038660000151038386600001518760200151612463565b019050612383565b5092915050565b6123d8612625565b6123e383838361253e565b5092915050565b606080826000015167ffffffffffffffff8111801561240857600080fd5b506040519080825280601f01601f19166020018201604052801561243b5781602001600182028036833780820191505090505b509050600060208201905061245981856020015186600001516125dc565b8192505050919050565b600080849050600086851161252e57602085116124e857600060018660200360080260020a031960001b905060008186511690506000878a8a0103905060008386511690505b8281146124da578186106124c7578a8a019650505050505050612536565b85806001019650508386511690506124a9565b859650505050505050612536565b60008585209050600091505b858803821161252c5760008684209050808214156125185783945050505050612536565b6001840193505081806001019250506124f4565b505b868601925050505b949350505050565b612546612625565b60006125648560000151866020015186600001518760200151612463565b905084602001518360200181815250508460200151810383600001818152505084600001518560200151018114156125a65760008560000181815250506125d1565b8360000151836000015101856000018181510391508181525050836000015181018560200181815250505b829150509392505050565b5b6020811061260057815183526020830192506020820191506020810390506125dd565b60006001826020036101000a0390508019835116818551168181178652505050505050565b60405180604001604052806000815260200160008152509056fe45524332303a207472616e7366657220746f20746865207a65726f206164647265737345524332303a20617070726f766520746f20746865207a65726f206164647265737345524332303a207472616e7366657220616d6f756e7420657863656564732062616c616e636545524332303a207472616e7366657220616d6f756e74206578636565647320616c6c6f77616e636545524332303a207472616e736665722066726f6d20746865207a65726f206164647265737345524332303a20617070726f76652066726f6d20746865207a65726f206164647265737345524332303a2064656372656173656420616c6c6f77616e63652062656c6f77207a65726fa26469706673582212205335f79bcf93c9c81088c17c3f4a54620824297098db32c6805dc0349ac056d764736f6c63430007000033",
  "immutableReferences": {},
  "source": "// SPDX-License-Identifier: MIT\r\n\r\npragma solidity ^0.7.0;\r\n\r\nimport \"./interfaces/IERC20.sol\";\r\nimport \"./math/SafeMath.sol\";\r\nimport \"./libs/oracleLinker.sol\";\r\nimport \"./libs/string.sol\";\r\n\r\n/**\r\n * @dev Implementation of the {IERC20} interface.\r\n *\r\n * This implementation is agnostic to the way tokens are created. This means\r\n * that a supply mechanism has to be added in a derived contract using {_mint}.\r\n * For a generic mechanism see {ERC20PresetMinterPauser}.\r\n *\r\n * TIP: For a detailed writeup see our guide\r\n * https://forum.zeppelin.solutions/t/how-to-implement-erc20-supply-mechanisms/226[How\r\n * to implement supply mechanisms].\r\n *\r\n * We have followed general OpenZeppelin guidelines: functions revert instead\r\n * of returning `false` on failure. This behavior is nonetheless conventional\r\n * and does not conflict with the expectations of ERC20 applications.\r\n *\r\n * Additionally, an {Approval} event is emitted on calls to {transferFrom}.\r\n * This allows applications to reconstruct the allowance for all accounts just\r\n * by listening to said events. Other implementations of the EIP may not emit\r\n * these events, as it isn't required by the specification.\r\n *\r\n * Finally, the non-standard {decreaseAllowance} and {increaseAllowance}\r\n * functions have been added to mitigate the well-known issues around setting\r\n * allowances. See {IERC20-approve}.\r\n */\r\ncontract BookDexToken is IERC20, OracleUsability {\r\n\tusing SafeMath for uint256;\r\n\tusing strings for *;\r\n\r\n\tmapping (address => uint256) private _balances;\r\n\r\n\tmapping (address => mapping (address => uint256)) private _allowances;\r\n\tuint256 private _totalSupply;\r\n\r\n\tstring private _name;\r\n\tstring private _symbol;\r\n\tuint8 private _decimals;\r\n\r\n\tstruct TokenInfo {\r\n\t\tstring symbol;\r\n\t\tuint256 price;\r\n\t\tstring test;\r\n\t}\r\n\r\n\tmapping (string => TokenInfo) public prices;\r\n\r\n\t/**\r\n\t * @dev Sets the values for {name} and {symbol}, initializes {decimals} with\r\n\t * a default value of 18.\r\n\t *\r\n\t * To select a different value for {decimals}, use {_setupDecimals}.\r\n\t *\r\n\t * All three of these values are immutable: they can only be set once during\r\n\t * construction.\r\n\t */\r\n\tconstructor (string memory name, string memory symbol,\r\n\t uint256 startSupply, address owner) {\r\n\t\t_name = name;\r\n\t\t_symbol = symbol;\r\n\t\t_decimals = 18;\r\n\r\n\t\t_mint(owner, startSupply * (10 ** uint256(decimals())));\r\n\r\n\t\t// init the live price feed from the oracle\r\n\t\t__add_waiting_query(BookDexAction.FetchMarketERC20Prices);\r\n\t}\r\n\r\n\tfunction get_token_price(address addr) public view returns(uint256) {\r\n\t\tstring memory symbol = IERC20(addr).symbol();\r\n\t\treturn prices[symbol].price;\r\n\t}\r\n\r\n\tfunction get_token_test(address addr) public view returns(string memory) {\r\n\t\tstring memory symbol = IERC20(addr).symbol();\r\n\t\treturn prices[symbol].test;\r\n\t}\r\n\r\n\tfunction get_price_by_symbol(string calldata symbol) public view returns(uint256) {\r\n\t\treturn prices[symbol].price;\r\n\t}\r\n\r\n\tfunction get_test_by_index(string memory index) public view returns(string memory) {\r\n\t\treturn prices[index].test;\r\n\t}\r\n\r\n\tfunction __callback_handler(string memory raw,\r\n\t\tBookDexAction action, uint index) private\r\n\t{\r\n\t\tif (action == BookDexAction.FetchMarketERC20Prices) {\r\n\t\t\t// format used to pass by erc20s prices from oracle markets datas\r\n\t\t\tstring[] memory erc20s = strings.split_string(raw, ';');\r\n\t\t\tfor (uint i = 0; i < erc20s.length; i++) {\r\n\t\t\t\t// then parse the price for each token and save it to our map\r\n\t\t\t\tstring[] memory erc20_info = strings.split_string(erc20s[i], ':');\r\n\t\t\t\tif (erc20_info.length == 2) {\r\n\t\t\t\t\tprices[erc20_info[0]].price = strings.parseInt(erc20_info[1], 8);\r\n\t\t\t\t}\r\n\t\t\t}\r\n\r\n\t\t\t__add_waiting_query(BookDexAction.FetchMarketERC20Prices);\r\n\t\t}\r\n\t\t\r\n\t\t__ack_ended_query(index);\r\n\t}\r\n\r\n\t function __callback(string calldata raw, BookDexAction action) public override {\r\n\t\tif (msg.sender != oracle_address) revert();\r\n\t\tfor (uint i=0; i < waiting_queries.length; i++) {\r\n\t\t\tif (waiting_queries[i] == action) {\r\n\t\t\t\t__callback_handler(raw, action, i);\r\n\t\t\t\tbreak;\r\n\t\t\t}\r\n\t\t}\r\n    }\r\n\r\n\tfunction transferETHToContract(address payable receiver) public payable {\r\n\t\t// address payable contract_address = payable(address(this));\r\n\t\t// contract_address.transfer(j);\r\n\r\n\t\trequire(msg.value > 0); //This will revert if msg.value will be 0\r\n    \treceiver.transfer(msg.value);\r\n\r\n\t\t// emit Payment(msg.sender, this, msg.value);\r\n\r\n        // the sender has sent us 1 ether, so we can pass it on.\r\n        // if(!receiver.send(msg.value)) {\r\n        //     revert(); // if we can't pay it forward, send it back\r\n        // }\r\n\t}\r\n\r\n\t/**\r\n\t * @dev Returns the name of the token.\r\n\t */\r\n\tfunction name() public view returns (string memory) {\r\n\t\treturn _name;\r\n\t}\r\n\r\n\t/**\r\n\t * @dev Returns the symbol of the token, usually a shorter version of the\r\n\t * name.\r\n\t */\r\n\tfunction symbol() public view override returns (string memory) {\r\n\t\treturn _symbol;\r\n\t}\r\n\r\n\t/**\r\n\t * @dev Returns the number of decimals used to get its user representation.\r\n\t * For example, if `decimals` equals `2`, a balance of `505` tokens should\r\n\t * be displayed to a user as `5,05` (`505 / 10 ** 2`).\r\n\t *\r\n\t * Tokens usually opt for a value of 18, imitating the relationship between\r\n\t * Ether and Wei. This is the value {ERC20} uses, unless {_setupDecimals} is\r\n\t * called.\r\n\t *\r\n\t * NOTE: This information is only used for _display_ purposes: it in\r\n\t * no way affects any of the arithmetic of the contract, including\r\n\t * {IERC20-balanceOf} and {IERC20-transfer}.\r\n\t */\r\n\tfunction decimals() public view returns (uint8) {\r\n\t\treturn _decimals;\r\n\t}\r\n\r\n\t/**\r\n\t * @dev See {IERC20-totalSupply}.\r\n\t */\r\n\tfunction totalSupply() public view override returns (uint256) {\r\n\t\treturn _totalSupply;\r\n\t}\r\n\r\n\t/**\r\n\t * @dev See {IERC20-balanceOf}.\r\n\t */\r\n\tfunction balanceOf(address account) public view override returns (uint256) {\r\n\t\treturn _balances[account];\r\n\t}\r\n\r\n\t/**\r\n\t * @dev See {IERC20-transfer}.\r\n\t *\r\n\t * Requirements:\r\n\t *\r\n\t * - `recipient` cannot be the zero address.\r\n\t * - the caller must have a balance of at least `amount`.\r\n\t */\r\n\tfunction transfer(address recipient, uint256 amount) public virtual override returns (bool) {\r\n\t\t_transfer(msg.sender, recipient, amount);\r\n\t\treturn true;\r\n\t}\r\n\r\n\t/**\r\n\t * @dev See {IERC20-allowance}.\r\n\t */\r\n\tfunction allowance(address owner, address spender) public view virtual override returns (uint256) {\r\n\t\treturn _allowances[owner][spender];\r\n\t}\r\n\r\n\t/**\r\n\t * @dev See {IERC20-approve}.\r\n\t *\r\n\t * Requirements:\r\n\t *\r\n\t * - `spender` cannot be the zero address.\r\n\t */\r\n\tfunction approve(address spender, uint256 amount) public virtual override returns (bool) {\r\n\t\t_approve(msg.sender, spender, amount);\r\n\t\treturn true;\r\n\t}\r\n\r\n\t/**\r\n\t * @dev See {IERC20-transferFrom}.\r\n\t *\r\n\t * Emits an {Approval} event indicating the updated allowance. This is not\r\n\t * required by the EIP. See the note at the beginning of {ERC20}.\r\n\t *\r\n\t * Requirements:\r\n\t *\r\n\t * - `sender` and `recipient` cannot be the zero address.\r\n\t * - `sender` must have a balance of at least `amount`.\r\n\t * - the caller must have allowance for ``sender``'s tokens of at least\r\n\t * `amount`.\r\n\t */\r\n\tfunction transferFrom(address sender, address recipient, uint256 amount) public virtual override returns (bool) {\r\n\t\t_transfer(sender, recipient, amount);\r\n\t\t_approve(sender, msg.sender, _allowances[sender][msg.sender].sub(amount, \"ERC20: transfer amount exceeds allowance\"));\r\n\t\treturn true;\r\n\t}\r\n\r\n\t/**\r\n\t * @dev Atomically increases the allowance granted to `spender` by the caller.\r\n\t *\r\n\t * This is an alternative to {approve} that can be used as a mitigation for\r\n\t * problems described in {IERC20-approve}.\r\n\t *\r\n\t * Emits an {Approval} event indicating the updated allowance.\r\n\t *\r\n\t * Requirements:\r\n\t *\r\n\t * - `spender` cannot be the zero address.\r\n\t */\r\n\tfunction increaseAllowance(address spender, uint256 addedValue) public virtual returns (bool) {\r\n\t\t_approve(msg.sender, spender, _allowances[msg.sender][spender].add(addedValue));\r\n\t\treturn true;\r\n\t}\r\n\r\n\t/**\r\n\t * @dev Atomically decreases the allowance granted to `spender` by the caller.\r\n\t *\r\n\t * This is an alternative to {approve} that can be used as a mitigation for\r\n\t * problems described in {IERC20-approve}.\r\n\t *\r\n\t * Emits an {Approval} event indicating the updated allowance.\r\n\t *\r\n\t * Requirements:\r\n\t *\r\n\t * - `spender` cannot be the zero address.\r\n\t * - `spender` must have allowance for the caller of at least\r\n\t * `subtractedValue`.\r\n\t */\r\n\tfunction decreaseAllowance(address spender, uint256 subtractedValue) public virtual returns (bool) {\r\n\t\t_approve(msg.sender, spender, _allowances[msg.sender][spender].sub(subtractedValue, \"ERC20: decreased allowance below zero\"));\r\n\t\treturn true;\r\n\t}\r\n\r\n\t/**\r\n\t * @dev Moves tokens `amount` from `sender` to `recipient`.\r\n\t *\r\n\t * This is internal function is equivalent to {transfer}, and can be used to\r\n\t * e.g. implement automatic token fees, slashing mechanisms, etc.\r\n\t *\r\n\t * Emits a {Transfer} event.\r\n\t *\r\n\t * Requirements:\r\n\t *\r\n\t * - `sender` cannot be the zero address.\r\n\t * - `recipient` cannot be the zero address.\r\n\t * - `sender` must have a balance of at least `amount`.\r\n\t */\r\n\tfunction _transfer(address sender, address recipient, uint256 amount) internal virtual {\r\n\t\trequire(sender != address(0), \"ERC20: transfer from the zero address\");\r\n\t\trequire(recipient != address(0), \"ERC20: transfer to the zero address\");\r\n\r\n\t\t_beforeTokenTransfer(sender, recipient, amount);\r\n\r\n\t\t_balances[sender] = _balances[sender].sub(amount, \"ERC20: transfer amount exceeds balance\");\r\n\t\t_balances[recipient] = _balances[recipient].add(amount);\r\n\t\temit Transfer(sender, recipient, amount);\r\n\t}\r\n\r\n\t/** @dev Creates `amount` tokens and assigns them to `account`, increasing\r\n\t * the total supply.\r\n\t *\r\n\t * Emits a {Transfer} event with `from` set to the zero address.\r\n\t *\r\n\t * Requirements:\r\n\t *\r\n\t * - `to` cannot be the zero address.\r\n\t */\r\n\tfunction _mint(address account, uint256 amount) internal virtual {\r\n\t\trequire(account != address(0), \"ERC20: mint to the zero address\");\r\n\r\n\t\t_beforeTokenTransfer(address(0), account, amount);\r\n\r\n\t\t_totalSupply = _totalSupply.add(amount);\r\n\t\t_balances[account] = _balances[account].add(amount);\r\n\t\temit Transfer(address(0), account, amount);\r\n\t}\r\n\r\n\t/**\r\n\t * @dev Destroys `amount` tokens from `account`, reducing the\r\n\t * total supply.\r\n\t *\r\n\t * Emits a {Transfer} event with `to` set to the zero address.\r\n\t *\r\n\t * Requirements:\r\n\t *\r\n\t * - `account` cannot be the zero address.\r\n\t * - `account` must have at least `amount` tokens.\r\n\t */\r\n\tfunction _burn(address account, uint256 amount) internal virtual {\r\n\t\trequire(account != address(0), \"ERC20: burn from the zero address\");\r\n\r\n\t\t_beforeTokenTransfer(account, address(0), amount);\r\n\r\n\t\t_balances[account] = _balances[account].sub(amount, \"ERC20: burn amount exceeds balance\");\r\n\t\t_totalSupply = _totalSupply.sub(amount);\r\n\t\temit Transfer(account, address(0), amount);\r\n\t}\r\n\r\n\t/**\r\n\t * @dev Sets `amount` as the allowance of `spender` over the `owner` s tokens.\r\n\t *\r\n\t * This internal function is equivalent to `approve`, and can be used to\r\n\t * e.g. set automatic allowances for certain subsystems, etc.\r\n\t *\r\n\t * Emits an {Approval} event.\r\n\t *\r\n\t * Requirements:\r\n\t *\r\n\t * - `owner` cannot be the zero address.\r\n\t * - `spender` cannot be the zero address.\r\n\t */\r\n\tfunction _approve(address owner, address spender, uint256 amount) internal virtual {\r\n\t\trequire(owner != address(0), \"ERC20: approve from the zero address\");\r\n\t\trequire(spender != address(0), \"ERC20: approve to the zero address\");\r\n\r\n\t\t_allowances[owner][spender] = amount;\r\n\t\temit Approval(owner, spender, amount);\r\n\t}\r\n\r\n\t/**\r\n\t * @dev Sets {decimals} to a value other than the default one of 18.\r\n\t *\r\n\t * WARNING: This function should only be called from the constructor. Most\r\n\t * applications that interact with token contracts will not expect\r\n\t * {decimals} to ever change, and may work incorrectly if it does.\r\n\t */\r\n\tfunction _setupDecimals(uint8 decimals_) internal {\r\n\t\t_decimals = decimals_;\r\n\t}\r\n\r\n\t/**\r\n\t * @dev Hook that is called before any transfer of tokens. This includes\r\n\t * minting and burning.\r\n\t *\r\n\t * Calling conditions:\r\n\t *\r\n\t * - when `from` and `to` are both non-zero, `amount` of ``from``'s tokens\r\n\t * will be to transferred to `to`.\r\n\t * - when `from` is zero, `amount` tokens will be minted for `to`.\r\n\t * - when `to` is zero, `amount` of ``from``'s tokens will be burned.\r\n\t * - `from` and `to` are never both zero.\r\n\t *\r\n\t * To learn more about hooks, head to xref:ROOT:extending-contracts.adoc#using-hooks[Using Hooks].\r\n\t */\r\n\tfunction _beforeTokenTransfer(address from, address to, uint256 amount) internal virtual { }\r\n}",
  "sourcePath": "/mnt/f/eth/contracts/contracts/bookdexToken.sol",
  "compiler": {
    "name": "solc",
    "version": "0.7.0+commit.9e61f92b.Emscripten.clang"
  },
  "schemaVersion": "3.2.5",
  "updatedAt": "2020-10-01T19:06:30.370Z",
  "networkType": "ethereum",
  "devdoc": {
    "details": "Implementation of the {IERC20} interface. This implementation is agnostic to the way tokens are created. This means that a supply mechanism has to be added in a derived contract using {_mint}. For a generic mechanism see {ERC20PresetMinterPauser}. TIP: For a detailed writeup see our guide https://forum.zeppelin.solutions/t/how-to-implement-erc20-supply-mechanisms/226[How to implement supply mechanisms]. We have followed general OpenZeppelin guidelines: functions revert instead of returning `false` on failure. This behavior is nonetheless conventional and does not conflict with the expectations of ERC20 applications. Additionally, an {Approval} event is emitted on calls to {transferFrom}. This allows applications to reconstruct the allowance for all accounts just by listening to said events. Other implementations of the EIP may not emit these events, as it isn't required by the specification. Finally, the non-standard {decreaseAllowance} and {increaseAllowance} functions have been added to mitigate the well-known issues around setting allowances. See {IERC20-approve}.",
    "kind": "dev",
    "methods": {
      "allowance(address,address)": {
        "details": "See {IERC20-allowance}."
      },
      "approve(address,uint256)": {
        "details": "See {IERC20-approve}. Requirements: - `spender` cannot be the zero address."
      },
      "balanceOf(address)": {
        "details": "See {IERC20-balanceOf}."
      },
      "constructor": {
        "details": "Sets the values for {name} and {symbol}, initializes {decimals} with a default value of 18. To select a different value for {decimals}, use {_setupDecimals}. All three of these values are immutable: they can only be set once during construction."
      },
      "decimals()": {
        "details": "Returns the number of decimals used to get its user representation. For example, if `decimals` equals `2`, a balance of `505` tokens should be displayed to a user as `5,05` (`505 / 10 ** 2`). Tokens usually opt for a value of 18, imitating the relationship between Ether and Wei. This is the value {ERC20} uses, unless {_setupDecimals} is called. NOTE: This information is only used for _display_ purposes: it in no way affects any of the arithmetic of the contract, including {IERC20-balanceOf} and {IERC20-transfer}."
      },
      "decreaseAllowance(address,uint256)": {
        "details": "Atomically decreases the allowance granted to `spender` by the caller. This is an alternative to {approve} that can be used as a mitigation for problems described in {IERC20-approve}. Emits an {Approval} event indicating the updated allowance. Requirements: - `spender` cannot be the zero address. - `spender` must have allowance for the caller of at least `subtractedValue`."
      },
      "increaseAllowance(address,uint256)": {
        "details": "Atomically increases the allowance granted to `spender` by the caller. This is an alternative to {approve} that can be used as a mitigation for problems described in {IERC20-approve}. Emits an {Approval} event indicating the updated allowance. Requirements: - `spender` cannot be the zero address."
      },
      "name()": {
        "details": "Returns the name of the token."
      },
      "symbol()": {
        "details": "Returns the symbol of the token, usually a shorter version of the name."
      },
      "totalSupply()": {
        "details": "See {IERC20-totalSupply}."
      },
      "transfer(address,uint256)": {
        "details": "See {IERC20-transfer}. Requirements: - `recipient` cannot be the zero address. - the caller must have a balance of at least `amount`."
      },
      "transferFrom(address,address,uint256)": {
        "details": "See {IERC20-transferFrom}. Emits an {Approval} event indicating the updated allowance. This is not required by the EIP. See the note at the beginning of {ERC20}. Requirements: - `sender` and `recipient` cannot be the zero address. - `sender` must have a balance of at least `amount`. - the caller must have allowance for ``sender``'s tokens of at least `amount`."
      }
    },
    "version": 1
  },
  "userdoc": {
    "kind": "user",
    "methods": {},
    "version": 1
  }
}