{
  "contractName": "PETSwap",
  "abi": [
    {
      "inputs": [
        {
          "internalType": "address",
          "name": "_oracle_address",
          "type": "address"
        },
        {
          "internalType": "address",
          "name": "_token_address",
          "type": "address"
        }
      ],
      "stateMutability": "nonpayable",
      "type": "constructor"
    },
    {
      "inputs": [
        {
          "internalType": "address",
          "name": "balance",
          "type": "address"
        }
      ],
      "name": "fetchTokenBalance",
      "outputs": [
        {
          "internalType": "uint256",
          "name": "",
          "type": "uint256"
        }
      ],
      "stateMutability": "view",
      "type": "function",
      "constant": true
    },
    {
      "inputs": [
        {
          "internalType": "address",
          "name": "from",
          "type": "address"
        },
        {
          "internalType": "string",
          "name": "chain",
          "type": "string"
        },
        {
          "internalType": "bytes32",
          "name": "hash_swap",
          "type": "bytes32"
        }
      ],
      "name": "getHashAmount",
      "outputs": [
        {
          "internalType": "uint256",
          "name": "",
          "type": "uint256"
        }
      ],
      "stateMutability": "view",
      "type": "function",
      "constant": true
    },
    {
      "inputs": [
        {
          "internalType": "address",
          "name": "from",
          "type": "address"
        },
        {
          "internalType": "string",
          "name": "chain",
          "type": "string"
        },
        {
          "internalType": "bytes32",
          "name": "hash_swap",
          "type": "bytes32"
        }
      ],
      "name": "getHashDestination",
      "outputs": [
        {
          "internalType": "string",
          "name": "",
          "type": "string"
        }
      ],
      "stateMutability": "view",
      "type": "function",
      "constant": true
    },
    {
      "inputs": [
        {
          "internalType": "string",
          "name": "chain",
          "type": "string"
        }
      ],
      "name": "getLastSwapHash",
      "outputs": [
        {
          "internalType": "bytes32",
          "name": "",
          "type": "bytes32"
        }
      ],
      "stateMutability": "view",
      "type": "function",
      "constant": true
    },
    {
      "inputs": [
        {
          "internalType": "uint256",
          "name": "_amount",
          "type": "uint256"
        },
        {
          "internalType": "string",
          "name": "chain",
          "type": "string"
        },
        {
          "internalType": "string",
          "name": "_dest",
          "type": "string"
        }
      ],
      "name": "swapToken",
      "outputs": [],
      "stateMutability": "nonpayable",
      "type": "function"
    },
    {
      "inputs": [
        {
          "internalType": "uint256",
          "name": "_amount",
          "type": "uint256"
        }
      ],
      "name": "transferToken",
      "outputs": [],
      "stateMutability": "payable",
      "type": "function",
      "payable": true
    }
  ],
  "bytecode": "0x608060405234801561001057600080fd5b5060405161109b38038061109b8339818101604052604081101561003357600080fd5b810190808051906020019092919080519060200190929190505050816000806101000a81548173ffffffffffffffffffffffffffffffffffffffff021916908373ffffffffffffffffffffffffffffffffffffffff16021790555080600160006101000a81548173ffffffffffffffffffffffffffffffffffffffff021916908373ffffffffffffffffffffffffffffffffffffffff1602179055505050610fbb806100e06000396000f3fe6080604052600436106100555760003560e01c8063053320371461005a578063101c2378146100f4578063241d21a7146101595780634c5f3c39146102805780639fc71b3114610386578063e6f22056146103b4575b600080fd5b34801561006657600080fd5b506100de6004803603602081101561007d57600080fd5b810190808035906020019064010000000081111561009a57600080fd5b8201836020820111156100ac57600080fd5b803590602001918460018302840111640100000000831117156100ce57600080fd5b909192939192939050505061051f565b6040518082815260200191505060405180910390f35b34801561010057600080fd5b506101436004803603602081101561011757600080fd5b81019080803573ffffffffffffffffffffffffffffffffffffffff16906020019092919050505061058e565b6040518082815260200191505060405180910390f35b34801561016557600080fd5b5061027e6004803603606081101561017c57600080fd5b8101908080359060200190929190803590602001906401000000008111156101a357600080fd5b8201836020820111156101b557600080fd5b803590602001918460018302840111640100000000831117156101d757600080fd5b9091929391929390803590602001906401000000008111156101f857600080fd5b82018360208201111561020a57600080fd5b8035906020019184600183028401116401000000008311171561022c57600080fd5b91908080601f016020809104026020016040519081016040528093929190818152602001838380828437600081840152601f19601f820116905080830192505050505050509192919290505050610660565b005b34801561028c57600080fd5b50610370600480360360608110156102a357600080fd5b81019080803573ffffffffffffffffffffffffffffffffffffffff169060200190929190803590602001906401000000008111156102e057600080fd5b8201836020820111156102f257600080fd5b8035906020019184600183028401116401000000008311171561031457600080fd5b91908080601f016020809104026020016040519081016040528093929190818152602001838380828437600081840152601f19601f82011690508083019250505050505050919291929080359060200190929190505050610927565b6040518082815260200191505060405180910390f35b6103b26004803603602081101561039c57600080fd5b81019080803590602001909291905050506109ed565b005b3480156103c057600080fd5b506104a4600480360360608110156103d757600080fd5b81019080803573ffffffffffffffffffffffffffffffffffffffff1690602001909291908035906020019064010000000081111561041457600080fd5b82018360208201111561042657600080fd5b8035906020019184600183028401116401000000008311171561044857600080fd5b91908080601f016020809104026020016040519081016040528093929190818152602001838380828437600081840152601f19601f82011690508083019250505050505050919291929080359060200190929190505050610c2c565b6040518080602001828103825283818151815260200191508051906020019080838360005b838110156104e45780820151818401526020810190506104c9565b50505050905090810190601f1680156105115780820380516001836020036101000a031916815260200191505b509250505060405180910390f35b6000600560003373ffffffffffffffffffffffffffffffffffffffff1673ffffffffffffffffffffffffffffffffffffffff1681526020019081526020016000208383604051808383808284378083019250505092505050908152602001604051809103902054905092915050565b600080600160009054906101000a900473ffffffffffffffffffffffffffffffffffffffff1690508073ffffffffffffffffffffffffffffffffffffffff166370a08231846040518263ffffffff1660e01b8152600401808273ffffffffffffffffffffffffffffffffffffffff16815260200191505060206040518083038186803b15801561061d57600080fd5b505afa158015610631573d6000803e3d6000fd5b505050506040513d602081101561064757600080fd5b8101908080519060200190929190505050915050919050565b610668610ece565b604051806040016040528083815260200186815250905060008261068b87610d8a565b610696600354610d8a565b60405160200180806020018060200180602001848103845287818151815260200191508051906020019080838360005b838110156106e15780820151818401526020810190506106c6565b50505050905090810190601f16801561070e5780820380516001836020036101000a031916815260200191505b50848103835286818151815260200191508051906020019080838360005b8381101561074757808201518184015260208101905061072c565b50505050905090810190601f1680156107745780820380516001836020036101000a031916815260200191505b50848103825285818151815260200191508051906020019080838360005b838110156107ad578082015181840152602081019050610792565b50505050905090810190601f1680156107da5780820380516001836020036101000a031916815260200191505b509650505050505050604051602081830303815290604052805190602001209050610804866109ed565b60036000815480929190600101919050555080600560003373ffffffffffffffffffffffffffffffffffffffff1673ffffffffffffffffffffffffffffffffffffffff16815260200190815260200160002086866040518083838082843780830192505050925050509081526020016040518091039020819055508160048686604051808383808284378083019250505092505050908152602001604051809103902060003373ffffffffffffffffffffffffffffffffffffffff1673ffffffffffffffffffffffffffffffffffffffff16815260200190815260200160002060008381526020019081526020016000206000820151816000019080519060200190610911929190610ee8565b5060208201518160010155905050505050505050565b60006004836040518082805190602001908083835b6020831061095f578051825260208201915060208101905060208303925061093c565b6001836020036101000a038019825116818451168082178552505050505050905001915050908152602001604051809103902060008573ffffffffffffffffffffffffffffffffffffffff1673ffffffffffffffffffffffffffffffffffffffff16815260200190815260200160002060008381526020019081526020016000206001015490509392505050565b6000600160009054906101000a900473ffffffffffffffffffffffffffffffffffffffff1690508073ffffffffffffffffffffffffffffffffffffffff1663313ce5676040518163ffffffff1660e01b815260040160206040518083038186803b158015610a5a57600080fd5b505afa158015610a6e573d6000803e3d6000fd5b505050506040513d6020811015610a8457600080fd5b810190808051906020019092919050505060ff16600a0a82029150818173ffffffffffffffffffffffffffffffffffffffff166370a08231336040518263ffffffff1660e01b8152600401808273ffffffffffffffffffffffffffffffffffffffff16815260200191505060206040518083038186803b158015610b0757600080fd5b505afa158015610b1b573d6000803e3d6000fd5b505050506040513d6020811015610b3157600080fd5b81019080805190602001909291905050501015610b4d57600080fd5b8073ffffffffffffffffffffffffffffffffffffffff166323b872dd3330856040518463ffffffff1660e01b8152600401808473ffffffffffffffffffffffffffffffffffffffff1681526020018373ffffffffffffffffffffffffffffffffffffffff1681526020018281526020019350505050602060405180830381600087803b158015610bdc57600080fd5b505af1158015610bf0573d6000803e3d6000fd5b505050506040513d6020811015610c0657600080fd5b810190808051906020019092919050505050816002600082825401925050819055505050565b60606004836040518082805190602001908083835b60208310610c645780518252602082019150602081019050602083039250610c41565b6001836020036101000a038019825116818451168082178552505050505050905001915050908152602001604051809103902060008573ffffffffffffffffffffffffffffffffffffffff1673ffffffffffffffffffffffffffffffffffffffff16815260200190815260200160002060008381526020019081526020016000206000018054600181600116156101000203166002900480601f016020809104026020016040519081016040528092919081815260200182805460018160011615610100020316600290048015610d7c5780601f10610d5157610100808354040283529160200191610d7c565b820191906000526020600020905b815481529060010190602001808311610d5f57829003601f168201915b505050505090509392505050565b60606000821415610dd2576040518060400160405280600181526020017f30000000000000000000000000000000000000000000000000000000000000008152509050610ec9565b600082905060005b60008214610dfc578080600101915050600a8281610df457fe5b049150610dda565b60608167ffffffffffffffff81118015610e1557600080fd5b506040519080825280601f01601f191660200182016040528015610e485781602001600182028036833780820191505090505b50905060006001830390505b60008614610ec157600a8681610e6657fe5b0660300160f81b82828060019003935081518110610e8057fe5b60200101907effffffffffffffffffffffffffffffffffffffffffffffffffffffffffffff1916908160001a905350600a8681610eb957fe5b049550610e54565b819450505050505b919050565b604051806040016040528060608152602001600081525090565b828054600181600116156101000203166002900490600052602060002090601f016020900481019282601f10610f2957805160ff1916838001178555610f57565b82800160010185558215610f57579182015b82811115610f56578251825591602001919060010190610f3b565b5b509050610f649190610f68565b5090565b5b80821115610f81576000816000905550600101610f69565b509056fea264697066735822122016d08545d37a41684b9fa024b45672f521cb56a5257e948ff4e45f3af729bb2364736f6c63430007000033",
  "immutableReferences": {},
  "source": "// SPDX-License-Identifier: MIT\r\n\r\nimport \"./interfaces/IERC20.sol\";\r\nimport \"./libs/string.sol\";\r\n\r\npragma solidity ^0.7.0;\r\n\r\ncontract PETSwap {\r\n    address oracle_address;\r\n    address token_address;\r\n\r\n    uint256 pool_balance;\r\n    uint256 swaps_id;\r\n\r\n    struct ChainSwap {\r\n        string dest;\r\n        uint256 amount;\r\n    }\r\n\r\n    mapping (string => mapping (address => mapping(bytes32 => ChainSwap))) internal swaps;\r\n    mapping(address => mapping(string => bytes32)) internal last_swaps_hashs;\r\n\r\n    constructor(address _oracle_address, address _token_address) {\r\n        oracle_address = _oracle_address;\r\n        token_address = _token_address;\r\n    }\r\n\r\n    function fetchTokenBalance(address balance) public view returns(uint256) {\r\n        IERC20 token = IERC20(token_address);\r\n        return (token.balanceOf(balance));\r\n    }\r\n\r\n    function getHashAmount(address from, string memory chain, bytes32 hash_swap) public view returns(uint256) {\r\n        return swaps[chain][from][hash_swap].amount;\r\n    }\r\n\r\n    function getHashDestination(address from, string memory chain, bytes32 hash_swap) public view returns(string memory) {\r\n        return swaps[chain][from][hash_swap].dest;\r\n    }\r\n\r\n    function getLastSwapHash(string calldata chain) public view returns(bytes32) {\r\n        return last_swaps_hashs[msg.sender][chain];\r\n    }\r\n\r\n    function swapToken(uint256 _amount, string calldata chain, \r\n        string memory _dest) public {\r\n        ChainSwap memory swap = ChainSwap({dest: _dest, amount: _amount});\r\n        bytes32 raw_hash = keccak256(abi.encode(_dest,\r\n          strings.uint2str(_amount), strings.uint2str(swaps_id)));\r\n        transferToken(_amount);\r\n        swaps_id++;\r\n        last_swaps_hashs[msg.sender][chain] = raw_hash;\r\n        swaps[chain][msg.sender][raw_hash] = swap;\r\n    }\r\n\r\n    function transferToken(uint256 _amount) public payable {\r\n        IERC20 token = IERC20(token_address);\r\n        _amount = _amount * (10 ** uint256(token.decimals()));\r\n        require(token.balanceOf(msg.sender) >= _amount);\r\n        token.transferFrom(msg.sender, address(this), _amount);\r\n        pool_balance += _amount;\r\n    }\r\n}",
  "sourcePath": "/mnt/f/eth/pet/contracts/petSwap.sol",
  "compiler": {
    "name": "solc",
    "version": "0.7.0+commit.9e61f92b.Emscripten.clang"
  },
  "schemaVersion": "3.2.5",
  "updatedAt": "2020-10-03T17:39:03.567Z",
  "networkType": "ethereum",
  "devdoc": {
    "kind": "dev",
    "methods": {},
    "version": 1
  },
  "userdoc": {
    "kind": "user",
    "methods": {},
    "version": 1
  }
}